:020000040800F2
:1000000000500020A91A0008FB1A0008FD1A000879
:10001000FF1A0008011B0008031B00080000000075
:10002000000000000000000000000000051B0008A8
:10003000071B000800000000091B00080B1B00083C
:10004000F91A0008F91A0008F91A0008F91A000844
:10005000F91A0008F91A0008F91A0008F91A000834
:10006000F91A0008F91A0008F91A0008F91A000824
:10007000F91A0008F91A0008F91A0008F91A000814
:10008000F91A0008F91A0008F91A0008F91A000804
:10009000F91A0008F91A0008F91A0008F91A0008F4
:1000A000F91A0008F91A0008F91A0008F91A0008E4
:1000B000F91A0008F91A0008F91A0008F91A0008D4
:1000C000F91A0008F91A0008F91A0008F91A0008C4
:1000D000F91A0008F91A0008F91A0008F91A0008B4
:1000E000F91A0008F91A0008F91A000800000000BF
:1000F0000000000000000000000000000000000000
:0C01000000000000000000005FF808F1A3
:10010C0010B5054C237833B9044B13B10448AFF345
:10011C0000800123237010BD14000020000000009B
:10012C00681D000808B5034B1BB103490348AFF326
:10013C00008008BD0000000018000020681D0008A9
:10014C00CB782DE9F041DA0648BF8A780E8803F0A7
:10015C000F0548BF154316F0FF0F1AD000214FF0C2
:10016C00010E4FF00F0C02680EFA01F737EA060485
:10017C000BD18C000CFA04F822EA080205FA04F4FC
:10018C00282B42EA040225D1476101310829EBD121
:10019C000260FF2E1CD900214FF0010E4FF00F0C06
:1001AC00426801F108040EFA04F434EA06070BD194
:1001BC008F000CFA07F822EA080205FA07F7282B39
:1001CC0042EA07020AD1446101310829E9D14260AF
:1001DC00BDE8F081482B08BF0761D6E7482B08BF64
:1001EC000461F1E770B586B00446868801A80D4617
:1001FC0000F0C6F8039A2E4926F03F06B2FBF1F147
:10020C003604360C88B20643A6802388294E23F088
:10021C0001031B041B0C23802B68B34223D85B0007
:10022C00B2FBF3F39BB2042B38BF0423013080B232
:10023C002084A3832388AA889BB243F001032380E4
:10024C002388698923F4816323F002031B040A4386
:10025C001B0C13439BB223802A89AB8913439BB29B
:10026C00238106B070BD4BF6FF70EE8886421BBF33
:10027C001920434303EB4303B2FBF3F30BBFB2FB75
:10028C00F3F39BB29BB243F48043C3F30B020AB962
:10029C0043F001034FF496724A434FF47A7192FB88
:1002AC00F1F2013292B243F400432284C1E700BF61
:1002BC0040420F00A0860100038821B19BB243F09D
:1002CC0001030380704723F001031B041B0CF8E7A8
:1002DC00038821B19BB243F480730380704723F4ED
:1002EC0080731B041B0CF8E7038821B19BB243F409
:1002FC0000730380704723F400731B041B0CF8E796
:10030C00038821B19BB243F480630380704723F4CC
:10031C0080631B041B0CF8E701827047008AC0B293
:10032C00704722B141F0010189B20182704701F09E
:10033C00FE01F9E7838A008B9BB243EA004321F06C
:10034C007F401840431A584258417047002382B0EE
:10035C00009301930B0F01900093009B21F07F41C0
:10036C0053B1019B14330193019B1B68194214BFB9
:10037C000120002002B07047019B090C1833F2E7F2
:10038C001C4A10B5536803F00C03042B01D0082B46
:10039C001FD0194B03605368184CC3F30313E15C73
:1003AC000368CB4043605168C1F30221615C23FABE
:1003BC0001F181605168C1F3C221615CCB40C36023
:1003CC0052680F49C2F381328A5CB3FBF2F30361CA
:1003DC0010BD53685168C3F38343CC0303F102038C
:1003EC0002D408494B43D5E751688903F9D4024933
:1003FC00F8E700BF0010024000127A000400002051
:10040C000000002000093D00044B9A6911B1104313
:10041C009861704722EA0000FAE700BF0010024022
:10042C00044BDA6911B11043D861704722EA00001D
:10043C00FAE700BF001002402DE9F7431F460023E6
:10044C00044688461646DFF82091019301934FF439
:10045C0000312046FFF77AFF0546002838D10121EC
:10046C002046FFF735FFDFF8009101953B4D2946FB
:10047C002046FFF75FFF90B3414600222046FFF76E
:10048C0050FF0023364DDFF8E080019329462046CB
:10049C00FFF750FF88B331462046FFF73DFF00239E
:1004AC00304D314E019329462046FFF743FF80B370
:1004BC009DF828507E1E013D3D44DFF8AC80294F4D
:1004CC00AE4232D120460121FFF70EFF002011E091
:1004DC00019B5A1C4B450192B9DD0A200AE0019B95
:1004EC0001330193019B4B45C1DD20460121FFF7F0
:1004FC00FBFE012003B0BDE8F083019B01330193A7
:10050C00019B4345C2DD20460121FFF7EDFE022091
:10051C00F0E7019B01330193019BB342C3DD2046FD
:10052C000121FFF7E1FE0320E4E716F8011F204646
:10053C00FFF7F2FE0023019339462046FFF7FAFE3F
:10054C000028BDD1019B01330193019B4345F3DD91
:10055C0020460121FFF7C8FE0420CBE70100030071
:10056C008200070084000700A08601002DE9F347F4
:10057C001F4600239DF8285004460E4690460193D2
:10058C00002D00F0A680DFF8F8A101934FF40031A4
:10059C002046FFF7DBFE8146002840F083800121D6
:1005AC002046FFF7ADFE01212046FFF791FEDFF854
:1005BC00D0A1CDF80490DFF8CC9149462046FFF746
:1005CC00B9FE0146002875D0002231462046FFF7BF
:1005DC00A8FE0023DFF8B091DFF8A4A101934946EF
:1005EC002046FFF7A7FE0146002876D0414620465C
:1005FC00FFF792FE0023DFF89481DFF884910193DA
:10060C0041462046FFF796FE0146002875D0012191
:10061C002046FFF75DFE0023DFF86881DFF860916C
:10062C00019341462046FFF785FE0146002874D011
:10063C00314601222046FFF774FE00234F4EDFF8AF
:10064C004081019331462046FFF774FE0146002895
:10065C0073D00026DFF83881DFF8249100216B1E5F
:10066C00B342019106D12046FFF74AFE01212046F4
:10067C00FFF73AFE41462046FFF75CFE8246002813
:10068C006BD02046FFF74AFEB8550136AE42E5D195
:10069C0000212046FFF734FE01212046FFF724FEFF
:1006AC00002516E0019B5A1C534501927FF76EAF53
:1006BC000A250EE0019B01330193019B53457FF703
:1006CC007CAF2046FFF71CFE01212046FFF70CFEF5
:1006DC000125284602B0BDE8F087019B0133019348
:1006EC00019B53457FF77BAF2046FFF709FE0121A5
:1006FC002046FFF7F9FD0225EBE7019B013301933F
:10070C00019B4B457FF77CAF2046FFF7F9FD01219C
:10071C002046FFF7E9FD0325DBE7019B013301933D
:10072C00019B4B457FF77DAF2046FFF7E9FD01218B
:10073C002046FFF7D9FD0425CBE7019B013301933C
:10074C00019B43457FF77EAF2046FFF7D9FD012182
:10075C002046FFF7C9FD0525BBE7019B013301933B
:10076C00019B4B4586DD01212046FFF7BDFD51461F
:10077C002046FFF7C5FD0625ABE700BF02000300CE
:10078C00A08601000100030082000700840007001E
:10079C004000030013B50446002800F0CF80036826
:1007AC00002B00F0CB804268002A00F0C7808268E2
:1007BC00002A00F0C38001220DF10301D0209847DC
:1007CC00002840F0BD809DF80330552B40F0B880D8
:1007DC002368022201A9AA209847002840F098809B
:1007EC009DF804209DF8053001A943EA02232382D9
:1007FC0002222368AC209847002840F08B809DF89B
:10080C0004209DF8053001A943EA022363820222E9
:10081C002368AE20984700287ED19DF804209DF8CF
:10082C00053001A943EA0223A38202222368B020E7
:10083C009847002872D19DF804209DF8053001A935
:10084C0043EA0223E38202222368B220984700285D
:10085C0066D19DF804209DF8053001A943EA0223D6
:10086C00238302222368B420984700285AD19DF88C
:10087C0004209DF8053001A943EA02236383022278
:10088C002368B620984700284ED19DF804209DF887
:10089C00053001A943EA0223A38302222368B8206E
:1008AC009847002842D19DF804209DF8053001A9F5
:1008BC0043EA0223E38302222368BA2098470028E4
:1008CC0036D19DF804209DF8053001A943EA022396
:1008DC00238402222368BC20984758BB9DF804202F
:1008EC009DF8053001A943EA0223638402222368A0
:1008FC00BE20984700BB9DF804209DF80530E060B1
:10090C0043EA0223A384E062A062206302B010BD1C
:10091C000A20FBE70B20F9E70C20F7E70D20F5E7A1
:10092C000E20F3E70F20F1E71020EFE71120EDE7A1
:10093C001220EBE71320E9E71420E7E72820E5E78E
:10094C001E20E3E7F7B50D460446002800F0DF80D3
:10095C002E2302AE06F8043D012243683146F420F2
:10096C009847002840F0D580A36805209847236855
:10097C0002223146F6209847002840F0CC80BDF882
:10098C000430628B5BBA9BB29B1A228BB4F9241095
:10099C005343DA13B4F922301144DB0293FBF1F325
:1009AC001344E36008331B1105F00305A362AB018C
:1009BC0034338DF80430012263683146F4209847B3
:1009CC00002840F0A680002D00F09A80012D00F048
:1009DC009980022D14BF1A200E20A3689847236813
:1009EC0003223146F6209847002840F094809DF869
:1009FC0005309DF804201B0243EA0243E268B4F977
:100A0C001410A2F57A6202FB02F69DF8060036136A
:100A1C00184302FB01F3B4F91C1064277143091449
:100A2C0001EB633102318910E38A01F500414B433C
:100A3C00D90BC5F1080320FA03F3B4F91E004643A1
:100A4C00B4F912004243B4F91000D21202EBE622C0
:100A5C0002EB8002AA400232A3EBA2004CF250320D
:100A6C0042FA05F343434DBFB3FBF1F35B00B3FB19
:100A7C00F1F35B001A1202FB02F140F6DE324A433C
:100A8C0026491214594302EB214202F6CF6203EBC2
:100A9C002213234AE3629342A8BF134647F2305213
:100AAC009342B8BF134600214FF4967093FBF7F7AF
:100ABC000D460246974205F105060ADB05F1010ECB
:100ACC00BEF1240F1644104629461DD123214FF4A4
:100ADC0096726425134F05FB00F637F911000131AE
:100AEC0037F911109B1B091A69436A434B43921B3C
:100AFC0093FBF2F205FB00220020226303B0F0BD51
:100B0C0005206AE7082068E775463246D2E71420CC
:100B1C00F4E70220F2E70120F0E700BF43E3FFFF18
:100B2C00B0AD0100101E0008002310B5064A12F8E3
:100B3C003340D900844202D10A44506810BD0133BD
:100B4C00112BF4D1014810BD881D0008801D000830
:100B5C002DE9F04F88468FB000286DD00768002F24
:100B6C0000F0CB808568002D00F0C980A968029147
:100B7C00002900F0C6802979B5F800E011F00104D5
:100B8C0008946C8801F0030112BFA446F446A646F3
:100B9C008C1E059400293FD0CC1E6142614104910A
:100BAC0008F1010189B217F8019008F1020189B22C
:100BBC007C5608F1040189B217F801B008F1030161
:100BCC0089B27D5617F808601544059AADB2012A12
:100BDC0024D8ACEB050292B20FFA82FA921B12B235
:100BEC000192049AA9EB0404F2B1E11A714489B29E
:100BFC000CB2A1EB090109B2BAF1000F02DA019BA8
:100C0C00002B04DBE2451ADD019B9C4517DA5E459F
:100C1C0010D205EB0B000EE00121C0E72AB20192C5
:100C2C00AA190FFA82FADCE71C1BA4B221B24C44BD
:100C3C0024B2E1E7A81900B20FB0BDE8F08F002C88
:100C4C0001DA0029E3DB03797445099301DD8E4554
:100C5C00DDDB002303938BB20693E31A013B0C9369
:100C6C00069ABDF80C3002EB03091FFA89F90FFA4A
:100C7C0089F29442CBDD049A12B90C9AD31A9BB226
:100C8C0073439BB20A930023BDF804200792AAEB8E
:100C9C000202013A0B9207999AB2501880B201B233
:100CAC008A4503DC039B01330393D9E7059901299A
:100CBC009CBF0B998A1A0A9998BF92B20A4491B2B6
:100CCC0008F1050202EBD102C94392B2BA5C01F001
:100CDC0007010A410999D2B2890614D5D24302F010
:100CEC00010208990D9331B101464846029B984781
:100CFC000D9B0133CFE74946F8E738469CE7284679
:100D0C009AE7029898E712F00102F2D0E9E7F0B501
:100D1C00054685B010B9002005B0F0BD0029FAD009
:100D2C0000220A704A708A70CA700778CE1C3B0683
:100D3C0002D40F700120EFE74FF0FE0CF8204FF0BB
:100D4C00E00EF024FC238DF804C04FF0C00C8DF89D
:100D5C0002008DF80B008DF800E08DF801408DF845
:100D6C0003308DF808C08DF809E08DF80A408DF835
:100D7C000C3002A81DF8023012F800E03B409E45F2
:100D8C00D4B213D1FF23A01C0332013443FA02F274
:100D9C00E4B2C0B202EA07032C44A5420AD1C21E37
:100DAC00032A14D8DFE802F02226292C0132052A66
:100DBC00E0D1B0E715F8012F002AACD002F0C00743
:100DCC00802FA8D102F03F0242EA8313E5E77F2B84
:100DDC00A1D9A3F55842B2F5006F9CD3013901F8A3
:100DEC00013F8E424FEA1323F9D195E7B3F5006F1B
:100DFC00EFD290E7B3F5803FFAE7B3F5001FF7E7C2
:100E0C00B3F1806FF4E72DE9F04788B3F9B1002610
:100E1C004FF0020E013A92B2941B94FBFEF4344450
:100E2C00A4B204EB440503EB4505ADB205F104088F
:100E3C000F1D00EB080C0CF1FF3C17F801AD9CF8F2
:100E4C000090CA4506D2013CA2B29642E4D90020D9
:100E5C00BDE8F08702D90134A6B2F6E7B942EAD16F
:100E6C000535ADB21FFA88F3415DC05C40EA012044
:100E7C00BDE8F0872DE9F04F8BB09846149E834661
:100E8C00002800F0B580002900F0B280002E00F0A0
:100E9C00AF808368002B00F0AB800568002D00F05C
:100EAC00A7802B78C82B40F0A38090F906302C79C2
:100EBC0004936B78E8780593AB783280032240EA90
:100ECC0004200690580090FBF2F20024DB43C2464B
:100EDC0089464FF4FA470292BDF80820F480B4809A
:100EEC00A6F8028003920194079399F80030BBB9DD
:100EFC009DF8101001984A008442ACBF14191418C4
:100F0C0090443288BFB2A8EB0708521A7F1AB480FB
:100F1C00A6F806803280778018460BB0BDE8F08FBB
:100F2C000A2B15D1079B09F101099A449BF804304F
:100F3C000FFA8AFA5A0644BF9BF90530E41A019B52
:100F4C0048BF24B2A342B8BF234600240193CCE788
:100F5C0009A94846FFF7DBFE03460028DCD0814494
:100F6C00059B069A09A92846FFF74DFF80B3431C41
:100F7C009BB2E95C831C9BB215F800C0EA56C31CFB
:100F8C0004309BB280B215F903E02B5C8A1A9C45A5
:100F9C0098BFE4189BF8043088BF64445B0648BFD4
:100FAC009BF90530AAEB020224B292B248BFE418B6
:100FBC0013B248BF24B29F42A8BF1F460B447444CF
:100FCC00984524B291DA02EB01080FFA88F88CE705
:100FDC00039B1C44029B24B253444345C2BF039B56
:100FEC0003EB0A080FFA88F85745A8BF57467CE769
:100FFC00012391E72DE9F04F984685B0002800F0C9
:10100C00C280002900F0BF8090F804E0B1F90070B4
:10101C00B1F90240CD8889881EF0010F15BF264614
:10102C003E463C460F461CBF2F460D461EF0030E97
:10103C000388B0F802C002D0BEF1030F03D1ACEBB1
:10104C0005010C1B24B2AEF1020EBEF1010F98BFCC
:10105C00D91BD0F808A09CBF8E1B36B2BAF1000F7A
:10106C0000F0918037443FB22544002F2DB202DAB4
:10107C00002EC0F288809F4202DDB342C0F2838012
:10108C00002D01DA002C7EDB654501DDA4457ADB01
:10109C009F42CABF1FB201230023002EB6BF0026F9
:1010AC00012131466545CABF002001200FFA8CF59D
:1010BC00002CB8BF0024B8FA88F8B4BFA3464FF090
:1010CC00010B012A01904FEA581813D1AC422ADACD
:1010DC0030461FFA84FB08E01FFA80F94846424666
:1010EC005946D04709F1010000B2B842F4DB013493
:1010FC0024B2EBE721B1A146B2B202924D4516DC07
:10110C0023B1A1467B1E9BB24D451DDCBBF1000FEC
:10111C0003D03046A4B2874223DC019B1BB1013DB6
:10112C00ADB2B74227DC002005B0BDE8F08F1FFA46
:10113C0089F9039349464246029809F10109D047BF
:10114C000FFA89F9039BD9E71FFA89F94946184622
:10115C000293424609F10109D0470FFA89F9029B23
:10116C00D2E71FFA80F9484642462146D04709F19A
:10117C00010000B2CFE7B6B23046424629460136EE
:10118C00D04736B2CDE70120CEE72DE9F04F0E4621
:10119C0089B0934698460546002868D0002966D049
:1011AC008368002B63D00768002F60D03B78C82B76
:1011BC0004D00024204609B0BDE8F08F7B783A7942
:1011CC000193BB780093FB7843EA02230293009BC4
:1011DC004FEA4309032399FBF3F91FFA89FAAAF1A1
:1011EC0004039BB203935C463378002BE2D00A2BAA
:1011FC0006D1009B0136DB4398440FFA88F8F2E7DE
:10120C0005A93046FFF783FD0028D2D005A9064476
:10121C00019B029A3846FFF7F6FD014688B12B79FF
:10122C00224613F0400F2846434606D0FFF790FCA9
:10123C0095F90540044424B2D6E7FFF789FC04462F
:10124C00D2E7B9F1050F10DDA31CADF81830BDF8CD
:10125C000C300246ADF81C3006A90346A868ADF860
:10126C001A80ADF81EA0FFF7C5FE5444E3E7012435
:10127C00A0E72DE9FF410F46054678B379B38468A2
:10128C007CB390F90640A4B222441C44037916B2F4
:10129C00DB0624B21DD50DF1080823463246CDF8E5
:1012AC000080FFF7E7FD2A790023C2F34012414684
:1012BC00A868FFF79FFE2346324639462846FFF7BB
:1012CC0064FF95F9063000EB430000B204B0BDE8B2
:1012DC00F08123463246FFF758FFF7E7F6E708465A
:1012EC00F4E72046F2E710B509B9002010BD002440
:1012FC004B1E8A1D03F8014F9342FBD17F2802D865
:10130C000870012010BDB0F5006F0AD2830900F0FF
:10131C003F0063F03F0360F07F0048700B700220C9
:10132C0010BDB0F5803F0FD2030B63F01F030B70A1
:10133C00C0F3851300F03F0063F07F0360F07F0083
:10134C0088704B70032010BDB0F5001F14D2830CB5
:10135C0063F00F030B70C0F3053363F07F034B7026
:10136C00C0F3851300F03F0063F07F0360F07F0053
:10137C00C8708B70042010BDB0F1806F19D2030EB1
:10138C0063F007030B70C0F3854363F07F034B706E
:10139C00C0F3053363F07F038B70C0F3851300F04B
:1013AC003F0063F07F0360F07F000871CB70052075
:1013BC0010BD002899DB830F63F003030B70C0F39F
:1013CC00056363F07F034B70C0F3854363F07F03C9
:1013DC008B70C0F3053363F07F03CB70C0F38513C0
:1013EC0000F03F0063F07F0360F07F0048710B71E9
:1013FC00062010BDF7B50F4615461E46044610B91B
:10140C00002003B0F0BD8368002BF9D06946384644
:10141C00FFF769FF0028F3D033462A466946204679
:10142C00FFF727FFEDE74FF47A6282B010F1FF303F
:10143C0001D202B070470192019B591E0191002B01
:10144C00F4D000BFF8E7000007B50B460092EE2180
:10145C0002460348FFF78AF803B05DF804FB00BFAF
:10146C000054004007B50B460092EE21024603489B
:10147C00FEF7E2FF03B05DF804FB00BF0054004030
:10148C0030B5012187B005460820FEF7BDFF0121CC
:10149C004FF40010FEF7C4FFC023ADF80430032353
:1014AC008DF806301C2301A912488DF80730FEF781
:1014BC0047FE0023ADF80C304BF6FF73ADF80E3041
:1014CC001023ADF810304FF48063ADF812304FF4A8
:1014DC00804306AC44F8105D074D01212846ADF859
:1014EC001430FEF7E9FE21462846FEF77BFE07B0D6
:1014FC0030BD00BF000C0140005400402DE9F04FFE
:10150C009148ADB0FFF7BCFF00F058FA00F04AFA72
:10151C0000F0B6F98023ADF80C304023ADF80E3056
:10152C0000238A4A1020059203AA08920B920E926D
:10153C001192042286498DF810308DF81C308DF8EC
:10154C001E308DF81D308DF828308DF82A308DF82E
:10155C0029308DF834308DF836308DF835308DF8E3
:10156C0041307C4B06911F937B497C4B0991209316
:10157C007B497C4B0C918DF840008DF842200F91EB
:10158C00219300F01BFA00F00DFABDF80E507649CD
:10159C0012A800F0DBFBA5F112031BB2002212A96A
:1015AC0006A8FFF766FE1FA8FFF7F4F8243D2DB23E
:1015BC0004460646002800F0B380FFF7B5FA6B49E5
:1015CC00024612A800F090FB2B46002212A906A896
:1015DC00FFF74FFE00F054F9002CD4D1299E2A9F1E
:1015EC002B9B36013F014FEA031800F0E7F9A3B239
:1015FC00009300F0D7F901211FA8FFF7A3F95FFAB8
:10160C0080FBBBF1000FBCD14FF00A09299BA6EB64
:10161C0026161E444FEA261A9AFBF9F52A9BA7EBCD
:10162C0027171F442B9BA8EB281898444FEA281324
:10163C002A464F4912A8019300F056FB28235A461C
:10164C0012A909A8FFF715FE834609FB15A5002D65
:10165C00B8BF6D426AB2474912A800F045FB282377
:10166C005A4612A90CA8FFF704FE28230246B02103
:10167C000CA8FFF7BFFE05463F4912A800F066FB19
:10168C002A46282312A90CA8FFF7F3FD64223B116C
:10169C0093FBF2F2364912A800F026FB1A23002223
:1016AC0012A906A8FFF7E5FD0A213B1193FBF1F304
:1016BC0093FBF1F2054601FB1232002AB8BF5242ED
:1016CC0052B22E4912A800F00FFB1A232A4612A977
:1016DC0006A8FFF7CEFD6422019B294993FBF2F289
:1016EC0012A800F001FB002312A91A460FA8FFF75D
:1016FC00C0FD3222009B0099B3FBF2F302FB1313E3
:10170C009BB2182B9DF8403004F1010494BF23F0D8
:10171C00200343F020038DF8403000F0B1F866E769
:10172C0001211FA8FFF70EF9C4B2002C3FF452AFF1
:10173C002046FFF7F9F90D49024612A800F0D4FA39
:10174C002B46324642E700BF801A0600791A000881
:10175C00E41E0008551400086628000871140008DF
:10176C0061260008331400084E2C00085A2C00087F
:10177C00612C0008652C0008682C00086A2C0008F5
:10178C00712C00086423002182B00191019AB2F5FA
:10179C007A6F03D3013BF8D102B07047019A013242
:1017AC000192F3E770B5054644F621644FF400311D
:1017BC002F48FEF7CBFD002836D101212C48FEF72F
:1017CC0087FD44F621642B4E31462948FEF7B2FDC5
:1017DC0070B3002278212648FEF7A3FD44F621645D
:1017EC00254E31462248FEF7A5FD48B3002120487E
:1017FC00FEF792FD44F62164204E31461C48FEF75C
:10180C0099FD28B329461A48FEF786FD44F6216453
:10181C001A4D29461648FEF78DFD08B301211448D0
:10182C00FEF762FD002070BD013CBFD10A2070BDE7
:10183C00013CC9D101210E48FEF756FD012070BDB7
:10184C00013CCED101210A48FEF74EFD022070BDAD
:10185C00013CD2D101210648FEF746FD032070BDA4
:10186C00013CD6D101210248FEF73EFD042070BD9B
:10187C0000540040010003008200070084000700B0
:10188C002DE9F0412120FFF78DFF0020FFF78AFFA3
:10189C007F20FFF787FF2220FFF784FF0020FFF750
:1018AC0081FF0720FFF77EFF44F621644FF40031DF
:1018BC003748FEF74BFD002840D101213448FEF794
:1018CC0007FD44F62164334D29463148FEF732FDBD
:1018DC00002838D0002278212D48FEF722FD44F64E
:1018EC0021642D4D29462A48FEF724FDA0B3402142
:1018FC002748FEF711FD44F62164284D294624485B
:10190C00FEF718FD88B30024254EDFF88480234FA2
:10191C00315D4046FEF700FD44F6216539461C4812
:10192C00FEF708FD50B30134B4F5806FF0D10121FE
:10193C001748FEF7D9FC0020BDE8F081013CB5D179
:10194C000A20BDE8F081013CBED101211048FEF710
:10195C00CBFC0120BDE8F081013CC3D101210C4836
:10196C00FEF7C2FC0220BDE8F081013CC6D101218A
:10197C000748FEF7B9FC0320BDE8F081013DCDD14D
:10198C0001210348FEF7B0FC0420BDE8F08100BF44
:10199C00005400400100030082000700840007008F
:1019AC003000002000231946034A99540133B3F543
:1019BC00806FFAD1704700BF3000002008B5FFF7E8
:1019CC00E1FEAE20FFF7EEFE0020FFF7EBFE10204D
:1019DC00FFF7E8FE4020FFF7E5FE8120FFF7E2FE6F
:1019EC00CC20FFF7DFFEA120FFF7DCFEC820FFF7BD
:1019FC00D9FEA620FFF7D6FEA420FFF7D3FEA82021
:101A0C00FFF7D0FE3F20FFF7CDFED320FFF7CAFE35
:101A1C000020FFF7C7FED520FFF7C4FEF020FFF72C
:101A2C00C1FED920FFF7BEFEF120FFF7BBFEDA2086
:101A3C00FFF7B8FE1220FFF7B5FEDB20FFF7B2FE72
:101A4C004020FFF7AFFE2020FFF7ACFE0020FFF791
:101A5C00A9FE8D20FFF7A6FE1420FFF7A3FEAF20F2
:101A6C00FFF7A0FEFFF78EFE002008BD7F2810B503
:101A7C000ED83F290CD8CB0800EBC3100123064C21
:101A8C0001F0070180B28B40215C12B10B4323544F
:101A9C0010BD21EA0303FAE730000020DFF834D050
:101AAC00002103E00C4B5B58435004310B480C4BAA
:101ABC0042189A42F6D30B4A02E0002342F8043B48
:101ACC00094B9A42F9D300F01BF800F01BF9FFF711
:101ADC0015FD704700500020802C000800000020ED
:101AEC00140000201400002030040020FEE7704792
:101AFC00FEE7FEE7FEE7FEE770477047704770476A
:101B0C00374B82B01A6842F001021A605968354AA4
:101B1C000A405A601A6822F0847222F480321A60E9
:101B2C001A6822F480221A605A6822F4FE025A6063
:101B3C004FF41F029A600022009201921A6842F43C
:101B4C0080321A601A6802F400320192009A013253
:101B5C000092019A1AB9009AB2F5A06FF2D11A68E4
:101B6C0012F4003218BF01220192019A012A05D009
:101B7C004FF000621C4B9A6002B070471B4A116810
:101B8C0041F010011160116821F00301116011681E
:101B9C0041F0020111605A685A605A685A605A68DA
:101BAC0042F480625A605A6822F47C125A605A6875
:101BBC0042F4E8125A601A6842F080721A601A688D
:101BCC009201FCD55A6822F003025A605A6842F01E
:101BDC0002025A605A6802F00C02082AFAD1C7E7CE
:101BEC00001002400000FFF800ED00E00020024071
:101BFC00012370B5B1FBF3F4944201D213B970BD5B
:101C0C005343F7E7B1FBF3F40568092C03FB1411FC
:101C1C0005F10106CCBF37343034066093FBF2F388
:101C2C002C70EBE72DE9F34113460C4606462D27A5
:101C3C0002AD45F8040D227832B9019B1A70019857
:101C4C00801B02B0BDE8F081252A47D16278642A56
:101C5C0022D00AD8582A13D0632A15D0252A09D1A4
:101C6C000199481C01900A7004E0732A24D003D80F
:101C7C00692A11D00234DEE7752A2AD0782AF9D1E4
:101C8C0003F10408102227E0019A0433511C01913E
:101C9C0053F8041C1170EDE7196803F104080029CE
:101CAC0004DA019B49425A1C01921F700A222846F1
:101CBC00FFF79EFF4346DDE7191D1B681A780AB92A
:101CCC000B46D7E7019A501C019013F8010B1070CA
:101CDC00F4E70A2203F104081968E8E701990134D2
:101CEC00481C01900A70A6E70EB403B503AA52F87B
:101CFC00041B0192FFF796FF02B05DF804EB03B0F2
:101D0C007047000070B500250C4E0D4CA41BA410A0
:101D1C00A54209D100F022F800250A4E0A4CA41B5A
:101D2C00A410A54205D170BD56F825309847013551
:101D3C00EEE756F8253098470135F2E7782C000885
:101D4C00782C0008782C00087C2C0008034611F82D
:101D5C00012B03F8012B002AF9D17047F8B500BF0D
:101D6C00F8BC08BC9E467047F8B500BFF8BC08BC70
:041D7C009E467047C8
:101D8000556E6B6E6F776E00FF000000801D0008BF
:101D9000000000005A1E000801000000621E00083A
:101DA000020000006B1E00080A000000751E0008FB
:101DB0000B0000007E1E00080C000000871E0008BB
:101DC0000D000000901E00080E000000991E000883
:101DD0000F000000A21E000810000000AB1E00084B
:101DE00011000000B31E000812000000BB1E000816
:101DF00013000000C31E000814000000CB1E0008E2
:101E00001E000000D31E000828000000DB1E000892
:101E1000CD235E23DB2245229C21E2201920411F95
:101E20005B1E681D6B1C631B521A39191918F316B7
:101E3000C715961461132912EF10B20F730E320DED
:101E4000F10BAF0A6D092B08E906A7056704260305
:101E5000E701A9006EFF32FEF8FC537563636573FA
:101E60007300493243205265616400493243205770
:101E700072697465004143312072656164004143B9
:101E800032207265616400414333207265616400F1
:101E900041433420726561640041433520726561BD
:101EA00064004143362072656164004231207265EE
:101EB00061640042322072656164004D42207265A7
:101EC0006164004D432072656164004D4420726579
:101ED00061640043686970204944004E554C4C20B1
:101EE00050747200C805135F00200000003F0221FB
:101EF0000000004502220000004E022300000055B1
:101F000002240000006802250000007A022600007A
:101F1000008D0227000000A00228000000A6022970
:101F2000000000B1022A000000BB022B000000C527
:101F3000022C000000D2022D000000D8022E00006A
:101F400000DE022F000000E40230000000F3023146
:101F50000000000303320000000D03330000001DE9
:101F600003340000002D03350000003D033600005F
:101F7000004D03370000005D03380000006D033999
:101F80000000007D033A0000008D033B0000009537
:101F9000033C0000009E033D000000AA033E000039
:101FA00000B2033F000000BE0340000000CC03412C
:101FB000000000E20342000000F6034300000008B6
:101FC00004440000001A04450000002C04460000F0
:101FD000003E04470000004F04480000006104492F
:101FE00000000073044A0000007B044B0000008BDB
:101FF000044C0000009E044D000000AF044E0000A1
:1020000000C2044F000000D40450000000E6045158
:10201000000000F704520000000D055300000020EE
:10202000055400000031055500000043055600002E
:10203000005405570000006705580000008105594D
:1020400000000094055A000000A7055B000000B8DE
:10205000055C000000C3055D000000D2055E0000C5
:1020600000DD055F000000E50560000000EB056194
:10207000000000F20562000000FF05630000001090
:1020800006640000001C06650000002B06660000C8
:102090000037066700000046066800000055066924
:1020A00000000066066A0000006E066B0000007A01
:1020B000066C0000008B066D00000093066E0000A9
:1020C00000A4066F000000B10670000000BD06719C
:1020D000000000CE0672000000DD0673000000E97B
:1020E0000674000000F50675000000020776000087
:1020F000000E07770000001B07780000002D07790D
:102100000000003A077A0000004C077B00000058EE
:10211000077C00000063077D0000006B077E000065
:102120000076070101010004000309090105FFB65B
:10213000836004040C0106FFB90C0909010E0C6050
:10214000CC7FF18C198318FFE3306300090B0A017F
:102150000B083FF8180C03F8060301FF82000C0976
:1021600009010EF0C9989B0FB006004F0C91891819
:10217000F00C0909010D3E0330300786EC6C76C384
:10218000CE3C7EF002040C0103FA040C0B00053671
:102190006CCCCCC663030C0B0105D9B6DB6F4006D3
:1021A000060A0109315FCC6CA0080809010A181859
:1021B0001818FF1818180204020105F60501050198
:1021C00008F80302020105F8070B0A000706183099
:1021D000C1830C1860C380090909010B7F71F07875
:1021E0003C1E0F07C77F000409090309F33333338B
:1021F00030090909010BFE4180C06070E0E1C0FFB9
:1022000080090909010BFF00C06037F00C0603FFCD
:1022100000090909010B070786C666361BFE06037F
:1022200000090909010BFFE0301FE0180C0603FF4D
:1022300000090909010B7FE0301FEE3E0F07C77F41
:1022400000090909010BFF80C0E060707030383868
:1022500000090909010B7F71F07C77F71F07C77F21
:1022600000090909010B7F71F07C77F80C0707FF63
:10227000000307070105F801F00309070105F8014C
:10228000B280080709010A031FF8E07C1F03080356
:10229000060109FF00FF080709010AC0F81F031F14
:1022A000F8C0080909010AFE8703033E30003030F8
:1022B0000D0A09010F7FF200F7F7B1BD8DECEF7D3C
:1022C000D800C023FE000D0909000D0F007C076037
:1022D00033838C1871FF8C0EE0380B0909010DFF58
:1022E000981B03606FFD81F01E07FFC00B090901F9
:1022F0000C7FDC0300600C01803007007FE00B09DD
:1023000009010DFFDC1F81F03E07C0F81F07FFC069
:102310000B0909010CFFD80300600FF180300600A3
:10232000FFE00A0909010CFFF80E0380FFB80E0355
:1023300080E0000B0909010D7FDC0300600C7F8148
:10234000F03F077FE00B0909010DC0780F01E03F66
:10235000FF80F01E03C0600209090105FFFFC009EC
:102360000909000B0180C06030180C06C7FF800C03
:102370000909010DE1CE38E70EE0FC0E70E38E1F77
:10238000E0600A0909010BE0380E0380E0380E0313
:10239000FEFFC00C0909010FE03F07F07F8FF9BE77
:1023A000DBE73E73E0300B0909010DE07E0FE1FE33
:1023B0003EE7CEF8FF0FE0E00B0909010D7FDC1BC3
:1023C00001E03C0780F01F067FC00A0909010CFFED
:1023D000B83E0F83E0FFFE0380E0000D0A09010D07
:1023E0007FC706301980CC066073031C387F000F4E
:1023F000C00C0909010DFF8E0CE0CE0CFFCE70E180
:102400008E0EE0700A0909010C7FF80C03007F8032
:10241000300C03FF800B0909000BFFE1C0380700F7
:10242000E01C0380700E000A0909010CC0F03C0F8B
:1024300003C0F03C0F877F800C0909000CE0760692
:1024400070E30C31C1981B00F00E00120909001254
:10245000E1C1D878661E19CD8C33330CCDC1E16053
:1024600078781C1C000C0909000CE0730C1980F032
:102470000F01F839C70CE0700C0909000CE0770E69
:1024800039C1B80F006006006006000A0909010C96
:10249000FFC07030381C0E070380FFC0040C0B0116
:1024A00006FCCCCCCCCCCF070B0AFF06E0C1818365
:1024B00003060C0C1818040C0B0107F333333333E9
:1024C0003F05040A010623B510080100010AFF03B5
:1024D000030A0004CC80090707010AFF01807FFC82
:1024E0001E0FFE090A0A010AC060301FEC1E0F070A
:1024F00083C3FF800807070109FFC0C0C0C0C0FF39
:10250000080A0A010B030303FFC3C3C3C3C3FF08C5
:102510000707010AFFC3C3FFC0C0FF080A0A00087B
:102520003F6160FE606060606060080A07010AFF4A
:10253000C3C3C3C3C3FF0383FF090A0A010AC06000
:10254000301FEC3E0F0783C1E0C0020A0A0104F30A
:10255000FFF0040D0AFF04330333333333F0090A69
:102560000A010AC0603018ECC6C3E1B8C761C002F6
:102570000A0A0104FFFFF00D0707010FFFF630F113
:10258000878C3C61E30F1860090707010AFF61F0BF
:10259000783C1E0F06080707010AFFC3C3C3C3C365
:1025A000FF090A07010AFF61F0783C1E1FFD80C089
:1025B0006000080A07010AFFC3C3C3C3C3FF0303C4
:1025C000030707070108FF8B060C183000080707F0
:1025D000010AFFC0C0FF0303FF07090900073063BA
:1025E000F983060C183E080707010AC3C3C3C3C317
:1025F000C3FF0907070009E1B1D8C66360F0700E98
:102600000707000EE71D9E6679996C3CB0F3C18EFA
:10261000000907070009E3B98D8381E3BB8E0A0A2D
:1026200007FF0970CC7318661B03C0E0187C3E00DE
:10263000080707010AFF060C3870E0FF040C0B01C5
:102640000676666CE66667020B090104FFFFFC0470
:102650000C0B0106C6666366666E0602040006760B
:1026600070C8051D1100200000006B002B00000049
:1026700071002D00000087002E0000008F00300048
:102680000000960031000000B40032000000C600D7
:1026900033000000E40034000000020135000000B7
:1026A0002201360000004001370000005E013800C2
:1026B00000007C01390000009A0143000000B801CD
:1026C0006D000000D801B0000000F9010101010017
:1026D00005000B0C0D020F0E01C0380700E1FFFFD3
:1026E000F8700E01C0380700080308020CFFFFFF56
:1026F0000303030207FF800E0E0E02103FF1FFEFEF
:1027000003F807E01F807E01F807E01F807E01FCD0
:102710000F7FF8FFC0070E0E060C0EFFF870E1C326
:10272000870E1C3870E1C00E0E0E02107FE3FFCE44
:1027300007B00E003801E00F007C07C03E03E01E2A
:1027400000FFFFFFF00E0E0E0210FFF3FFE003C0CC
:102750000F003C00E3FF0FFE003C00F003C00EFF43
:10276000FBFFC00F0E0E021000F003E00FC03F8011
:10277000F703CE0F1C3C38F071FFFFFFF803800712
:10278000000E000E0E0E0210FFFFFFFE003800E0EC
:1027900003FFEFFFC007001C007001C007FFFFFF31
:1027A000E00E0E0E02103FF9FFFF00F800E003FFFD
:1027B000CFFFBC0FE01F807E01FC0F7FFCFFC00E2F
:1027C0000E0E0210FFFFFFF001C00E007801C00FD7
:1027D000007801C00F007801C00F0078000E0E0EC7
:1027E00002103FF1FFEF03F807E01DC0E3FF9FFE7B
:1027F000F03F807E01FC0F7FF8FFC00E0E0E02102E
:102800003FF1FFEF03F807E01FC0F7FFCFFF001C09
:10281000007001C00F7FF9FFC00F0E0E02103FFFC6
:10282000FFFFFFFF000E001C0038007000E001C039
:10283000038007FFFFFFEFFFC0140B0B01163FDF04
:10284000C7FFFEF0F0FE0607E0607E0607E0607E50
:102850000607E0607E0607E060700707130209388C
:10286000FB1E3C6F8E00C805300F002B0000005F80
:10287000002D00000092002E000000A0003000009B
:1028800000A90031000000F60032000000190133F9
:10289000000000630134000000B0013500000000BA
:1028A00002360000004D02370000009A0238000096
:1028B00000E402390000003103430000007E03B051
:1028C000000000D103131315031A00F0001E0003CB
:1028D000C00078000F0001E0003C000780FFFFFF10
:1028E000FFFFFFFF8078000F0001E0003C00078041
:1028F00000F0001E0003C0000D050E000DFFFFFFDD
:10290000FFFFFFFFFF8006050503097BFFFF781827
:102910001818021A0FFFF03FFFFC7FFFFE7F00FE3A
:10292000FC003FFC001FF8001FF8001FF8001FF814
:10293000001FF8001FF8001FF8001FF8001FF80024
:102940001FF8001FF8001FF8001FFC001FFC003FCD
:102950007F00FE7FFFFE3FFFFC0FFFF00A18180903
:102960001307DFFFFFFFC7C1F07C1F07C1F07C1F0B
:1029700007C1F07C1F07C1F07C1F07C1F07C1F1747
:102980001818021A7FFF81FFFFC3FFFFC7C01FCFC8
:10299000000F80001F00003E00007C0000F80003D4
:1029A000F0000FE0003F8000FE0007F8001FE0008D
:1029B000FF8003FC001FE0007F0003F8000FE00031
:1029C0001FFFFFFFFFFFFFFFFF181818021A0FFF7E
:1029D000E07FFFF87FFFF87F03FC00007C00007CB5
:1029E00000007C00007C00007C0000FC0003F80F6D
:1029F000FFF00FFFFC0FFFFE00003E00003F000055
:102A00003F00003F00003F00003EE001FEFFFFFCF2
:102A1000FFFFF87FFFE0191818021A0007F00007FF
:102A2000F80007FC0007FE0007FF0007EF8003F730
:102A3000C003F3E003F1F003F0F803F07C03F83E89
:102A400003F81F01F80F81F807C1F803E0FFFFFF4B
:102A5000FFFFFFFFFFFFE0003E00001F00000F80B0
:102A60000007C00003E0181818021A7FFFFEFFFFDE
:102A7000FEFFFFFEFC0000F80000F80000F8000078
:102A8000F80000F80000FC0000FFFFF8FFFFFC7FEB
:102A9000FFFE00007E00003F00003F00003F0000FE
:102AA0003F00003F00003EC000FEFFFFFEFFFFFCB6
:102AB0003FFFF0181818021A0FFFFC3FFFFF7FFFBF
:102AC000FF7F0007FC0000FC0000F80000F8000099
:102AD000F80000F80000FFFFFCFFFFFEFFFFFEF81C
:102AE000003FF8001FF8001FF8001FF8001FFC004F
:102AF0001FFC003F7F00FE7FFFFE3FFFFC0FFFF04B
:102B00001718180219FFFFFFFFFFFFFFFFF8000370
:102B1000F00007C0001F80007E0000FC0003F000F2
:102B200007C0001F80007E0000F80003F0000FC007
:102B3000001F80007E0001F80003F0000FC0003F7E
:102B400080007E0001F80007F000181818021A072C
:102B5000FFE01FFFF83FFFFC3F81FC7E007C7E0012
:102B60007E7E007E7E007E7E007C3F00FC1FFFF8A4
:102B70001FFFF87FFFFC7F00FEFC003FF8003FF8DE
:102B8000001FF8001FF8003FFC003FFF00FE7FFF22
:102B9000FE3FFFFC0FFFF0181818021A0FFFF03F5E
:102BA000FFFC7FFFFEFF00FEFC003FF8003FF80047
:102BB0003FF8003FF8003FF8003FFC003F7F003F38
:102BC0007FFFFF3FFFFF0FFFFF00003F00003F00C0
:102BD000003F00003F00003E3E00FE7FFFFE7FFF03
:102BE000FC3FFFF01A1818031E0FFFFF0FFFFFE74F
:102BF000FFFFFBFC000EFC00003E00000F80000306
:102C0000E00000F800003E00000F800003E000003C
:102C1000F800003E00000F800003E00000F8000014
:102C20003E00000F800003F00000FF0001DFFFFF07
:102C3000F3FFFFFC7FFFFC0C0C18030F0F03FC706D
:102C4000E606E07C03C03E0760670E3FC0F05365B8
:102C50006E736F7220696E6974004572723A2573E3
:102C60000025642E0025640043002564206850611F
:082C70000025646D0000000066
:042C7800310100081E
:042C7C000D0100083E
:102C8000020406080000000001020304010203041C
:042C90000607080922
:0400000508001AA92C
:00000001FF
